:100000000C9434000C9446000C9446000C9446006A
:100010000C9446000C9446000C9446000C94460048
:100020000C9446000C9446000C9446000C94460038
:100030000C9446000C9446000C9446000C94460028
:100040000C9446000C9446000C9446000C94460018
:100050000C9446000C9446000C9446000C94460008
:100060000C9446000C94460011241FBECFEFD8E03C
:10007000DEBFCDBF21E0A0E0B1E001C01D92A43001
:10008000B207E1F70E9466000C94BF000C940000D8
:10009000ECE7F0E09081892B8083EAE7F0E0808153
:1000A0008064808380917A0086FDFCCF8091780007
:1000B000909179000895ECE7F0E08081806480837E
:1000C000EAE7F0E08081866C808308950E945B00FF
:1000D00080E00E944800BC0180E090E00E94820025
:1000E00060930001709301018093020190930301DA
:1000F0002FEF83EC99E0215080409040E1F700C061
:100100000000E6CFE89409C097FB3EF490958095F7
:10011000709561957F4F8F4F9F4F9923A9F0F92FCD
:1001200096E9BB279395F695879577956795B7954B
:10013000F111F8CFFAF4BB0F11F460FF1BC06F5F31
:100140007F4F8F4F9F4F16C0882311F096E911C043
:10015000772321F09EE8872F762F05C0662371F064
:1001600096E8862F70E060E02AF09A95660F771F78
:10017000881FDAF7880F9695879597F90895F89470
:02018000FFCFAF
:00000001FF
