S0160000494E544552525550545F44656D6F2E737265635D
S11300000C9434000C9440000C943E000C943E007C
S11300100C943E000C943E000C943E000C943E0064
S11300200C943E000C943E000C943E000C943E0054
S11300300C943E000C943E000C943E000C943E0044
S11300400C943E000C943E000C943E000C943E0034
S11300500C943E000C943E000C943E000C943E0024
S11300600C943E000C943E0011241FBECFEFD8E048
S1130070DEBFCDBF0E945F000C9466000C940000AC
S11300801F920F920FB60F9211248F939F938FE9B3
S11300909FE00197F1F700C0000095B180E2892745
S11300A085B99F918F910F900FBE0F901F90189557
S11300B081E08DBB82E0809369007894089580E2AA
S11300C084B980E185B90E945800FFCFF894FFCF2E
S9030000FC
